:100000000C942A000C943F000C943F000C943F0089
:100010000C943F000C943F000C943F000C943F0064
:100020000C943F000C943F000C943F000C943F0054
:100030000C943F000C943F000C943F000C943F0044
:100040000C943F000C943F000C943F000C943F0034
:100050000C943F0011241FBECFE5D8E0DEBFCDBF1A
:1000600011E0A0E6B0E0E2E7F6E002C005900D92F4
:10007000A839B107D9F70E946C000C9437030C948F
:10008000000092E095BB82BB15BA85EA9EE001971D
:10009000F1F700C00000089593E095BB82BB81E0BA
:1000A00085BB85EA9EE00197F1F700C00000089546
:1000B000CF93DF93EC0103C021960E944C0088810E
:1000C0008111FACFDF91CF91089588B38F7388BBE8
:1000D0008BB38F708BBB08958FEF84BB81BB80EC9B
:1000E00087BB18BA80EF8ABB1BBA88E30E94410025
:1000F0008FE00E94410081E00E944100C1E0D0E019
:100100006BC0B09B69C080E80E94410080E690E02F
:100110000E9458002FE38DE093E0215080409040F2
:10012000E1F700C0000080EC0E9441008CE690E006
:100130000E9458004EC0CA9B22C081E00E9441002C
:1001400080E80E9441008CE790E00E94580080EC1B
:100150000E9441008BE890E00E945800CF5F88B376
:10016000806488BB2FE78AE196E021508040904070
:10017000E1F700C0000081E00E9441002AC0C89958
:1001800004C0CB9902C0C99B24C0DF5FD33020F1EB
:100190000E94650081E00E94410080E80E944100C9
:1001A00087E990E00E94580080EC0E94410085EAB7
:1001B00090E00E9458002FE38DE093E021508040B2
:1001C0009040E1F700C0000081E00E944100D0E0D3
:1001D00003C0C13009F4AFCFC13009F06EC091CF78
:1001E000B19B6BC080E80E94410083EB90E00E94CD
:1001F00058002FE38DE093E0215080409040E1F7DC
:1002000000C0000080EC0E9441008FEB90E00E9453
:10021000580050C0C89B23C081E00E94410080E884
:100220000E9441008CE790E00E94580080EC0E9400
:1002300041008FEC90E00E94580088B3806888BB32
:100240002FE78AE196E0215080409040E1F700C01E
:10025000000081E00E944100CF5FD0E02BC0CA992E
:1002600004C0CB9902C0C99B25C0DF5FD33028F101
:100270000E94650081E00E94410080E80E944100E8
:1002800087E990E00E94580080EC0E94410085EAD6
:1002900090E00E9458002FE38DE093E021508040D1
:1002A0009040E1F700C0000081E00E944100C1E001
:1002B000D0E003C0C23009F4ADCFC23009F490CF12
:1002C0006DC0B29B6BC080E80E9441008BED90E056
:1002D0000E9458002FE38DE093E021508040904031
:1002E000E1F700C0000080EC0E94410087EE90E042
:1002F0000E94580050C0CB9B23C081E00E94410067
:1003000080E80E9441008CE790E00E94580080EC59
:100310000E94410087EF90E00E9458008BB38061FB
:100320008BBB2FE78AE196E0215080409040E1F7B7
:1003300000C0000081E00E944100CF5FD0E02BC0F0
:10034000C99904C0CA9902C0C89B25C0DF5FD330D9
:1003500028F10E94650081E00E94410080E80E942F
:10036000410087E990E00E94580080EC0E94410023
:1003700085EA90E00E9458002FE38DE093E0215041
:1003800080409040E1F700C0000081E00E94410001
:10039000C1E0D0E003C0C33009F4ADCFC33009F4ED
:1003A00090CF6DC0B39B6BC080E80E94410083E09A
:1003B00091E00E9458002FE38DE093E021508040AF
:1003C0009040E1F700C0000080EC0E9441008FE007
:1003D00091E00E94580050C0C89B23C081E00E9459
:1003E000410080E80E9441008CE790E00E945800A4
:1003F00080EC0E9441008FE191E00E9458008BB395
:1004000080628BBB2FE78AE196E0215080409040CC
:10041000E1F700C0000081E00E944100CF5FD0E022
:100420002BC0CA9904C0CB9902C0C99B25C0DF5F0D
:10043000D33028F10E94650081E00E94410080E8ED
:100440000E94410087E990E00E94580080EC0E94E1
:10045000410085EA90E00E9458002FE38DE093E090
:10046000215080409040E1F700C0000081E00E94F0
:100470004100C1E0D0E003C0C43009F4ADCFC430C6
:1004800009F490CF6DC0B49B6BC080E80E9441001E
:100490008BE291E00E9458002FE38DE093E0215021
:1004A00080409040E1F700C0000080EC0E944100D5
:1004B00088E391E00E94580050C0CA9B23C081E0AD
:1004C0000E94410080E80E9441008CE790E00E9479
:1004D000580080EC0E94410088E491E00E9458009E
:1004E0008BB380648BBB2FE78AE196E0215080407C
:1004F0009040E1F700C0000081E00E944100CF5F22
:10050000D0E02BC0C89904C0CB9902C0C99B25C0BC
:10051000DF5FD33028F10E94650081E00E94410036
:1005200080E80E94410087E990E00E94580080EC3A
:100530000E94410085EA90E00E9458002FE38DE080
:1005400093E0215080409040E1F700C0000081E03E
:100550000E944100C1E0D0E003C0C53009F4ADCF36
:10056000C53009F490CF7FC0B59B7DC080E80E9464
:10057000410084E591E00E9458002FE38DE093E074
:10058000215080409040E1F700C0000080EC0E94C4
:1005900041008FE591E00E94580062C0C99B36C0BF
:1005A00081E00E94410080E80E9441008CE790E0D9
:1005B0000E94580080EC0E9441008FE691E00E946A
:1005C00058008BB380688BBB2FE78AE196E02150FF
:1005D00080409040E1F700C0000081E00E944100AF
:1005E0008BE791E00E94580080EC0E9441008BE86C
:1005F00091E00E9458002FE78AE196E02150804068
:100600009040E1F700C00000D0E02AC0C89904C0C3
:10061000CB9902C0CA9B24C0DF5FD33020F10E9477
:10062000650081E00E94410080E80E94410087E966
:1006300090E00E94580080EC0E94410085EA90E022
:100640000E9458002FE38DE093E0215080409040BD
:10065000E1F700C0000081E00E944100D0E003C04B
:10066000C63009F49BCFC63009F47ECFB5CDF894DF
:02067000FFCFBA
:100672005131292032202B2032203D0031293220D5
:10068200322933203329342034293500636F7272C2
:1006920065637420616E73776572006F70656E6456
:1006A2006F6F72732031004661696C656420676FF9
:1006B20020746F20007374617274206F66206D6104
:1006C2007A65005132292032202A2033203D003120
:1006D2002936203229332033293420342935006F3A
:1006E20070656E646F6F727320320051332920344B
:1006F200202D2031203D003129362032293420336B
:10070200293220342933006F70656E646F6F727303
:100712002033005134292039202F2033203D00314D
:100722002933203229342033293220342935006FED
:1007320070656E646F6F72732034005135292031F9
:100742003020252035203D00312933203229342024
:1007520033293020342933006F70656E646F6F72F5
:10076200732035005136292031202A20373D0031AF
:100772002933203229372033293020342933006F9E
:1007820070656E646F6F7273203600636F6E67728E
:100792006174756C6174696F6E2100656E64206F9F
:0807A20066206D617A6500001C
:00000001FF
